:020000040000FA
:100000000C94E0000C9408010C9408010C94131259
:100010000C9413120C9413120C9408010C94080104
:100020000C9408010C9408010C9408010C9408012C
:100030000C9408010C9408010C9408010C9408011C
:100040000C94C9110C9408010C9497110C94711123
:100050000C9408010C9408010C9408010C940801FC
:100060000C948B120C94080100407A10F35A00A0F3
:10007000724E18090010A5D4E80000E87648170071
:1000800000E40B54020000CA9A3B000000E1F505B1
:10009000000080969800000040420F000000A086FB
:1000A00001000000102700000000E803000000002D
:1000B0006400000000000A000000000001000000D1
:1000C00000002C76D888DC674F0823DFC1DFAE59EB
:1000D000E1B1B796E5E3E453C63AE651997696E87E
:1000E000E6C28426EB898C9B62ED407C6FFCEFBC02
:1000F0009C9F40F2BAA56FA5F490055A2AF75C932D
:100100006B6CF9676DC11BFCE0E40D47FEF520E662
:10011000B500D0ED902E0300943577050080841E45
:10012000080000204E0A000000C80C333333330FA0
:10013000986E12831141EF8D2114893BE65516CF3D
:10014000FEE6DB18D1844B381BF77C1D901DA4BB49
:10015000E424203284725E228100C9F124ECA1E5FE
:100160003D2700000000240027002A0000000008AE
:10017000000201000003040700000000000000006E
:1001800000000000230026002900000000002500D8
:1001900028002B00040404040404040402020202E4
:1001A000020203030303030301020408102040803A
:1001B000010204081020010204081020AA130C19DF
:1001C00011241FBECFEFD8E0DEBFCDBF11E0A0E00D
:1001D000B1E0E0E7F1E402C005900D92A43CB10764
:1001E000D9F723E0A4ECB1E001C01D92A43EB20710
:1001F000E1F710E0CFEDD0E004C02197FE010E94AE
:10020000A41ECE3DD107C9F70E947D140C94AB20EB
:100210000C94000081E480937C0080917A008064DB
:1002200080937A0080917A0086FDFCCF80917800DF
:1002300090917900089508950895AF92BF92CF925A
:10024000DF92EF92FF920F931F93CF93DF936C0196
:100250007B018B01040F151FEB015E01AE18BF0877
:10026000C017D10759F06991D601ED91FC91019029
:10027000F081E02DC6010995892B79F7C501DF9141
:10028000CF911F910F91FF90EF90DF90CF90BF9093
:10029000AF900895FC01538D448D252F30E0842FBD
:1002A00090E0821B930B541710F0CF96089501979E
:1002B0000895FC01918D828D981761F0A28DAE0F8B
:1002C000BF2FB11D5D968C91928D9F5F9F73928F12
:1002D00090E008958FEF9FEF0895FC01918D828D3E
:1002E000981731F0828DE80FF11D858D90E008950B
:1002F0008FEF9FEF0895FC01918D228D892F90E063
:10030000805C9F4F821B91098F73992708958EED12
:1003100092E00E947B0121E0892B09F420E0822FEA
:10032000089580E090E0892B29F00E9487018111D7
:100330000C9400000895FC01A48DA80FB92FB11DE5
:10034000A35ABF4F2C91848D90E001968F7399270B
:10035000848FA689B7892C93A089B1898C918370E9
:1003600080648C93938D848D981306C00288F389E2
:10037000E02D80818F7D80830895EF92FF920F930F
:100380001F93CF93DF93EC0181E0888F9B8D8C8D41
:1003900098131AC0E889F989808185FF15C09FB735
:1003A000F894EE89FF896083E889F98980818370F8
:1003B000806480839FBF81E090E0DF91CF911F91A7
:1003C0000F91FF90EF900895F62E0B8D10E00F5FC8
:1003D0001F4F0F731127E02E8C8D8E110CC00FB69E
:1003E00007FCFACFE889F989808185FFF5CFCE0136
:1003F0000E949B01F1CFEB8DEC0FFD2FF11DE35A15
:10040000FF4FF0829FB7F8940B8FEA89FB898081B8
:100410008062CFCFCF93DF93EC01888D8823B9F032
:10042000AA89BB89E889F9898C9185FD03C08081FF
:1004300086FD0DC00FB607FCF7CF8C9185FFF2CF7C
:10044000808185FFEDCFCE010E949B01E9CFDF9136
:10045000CF91089590E0FC01E459FE4F2491FC01F6
:10046000E855FE4F3491FC01EC56FE4FE491EE232B
:10047000C9F0222339F0233001F1A8F4213019F119
:10048000223029F1F0E0EE0FFF1FE657FE4FA59155
:10049000B4918FB7F894EC91611126C030953E234A
:1004A0003C938FBF08952730A9F02830C9F024303D
:1004B00049F7809180008F7D03C0809180008F7705
:1004C00080938000DFCF84B58F7784BDDBCF84B588
:1004D0008F7DFBCF8091B0008F778093B000D2CF1B
:1004E0008091B0008F7DF9CF3E2BDACFCF93DF9391
:1004F00090E0FC01E855FE4F24918C569E4FFC0184
:1005000084918823D1F090E0880F991FFC01EE5967
:10051000FE4FA591B491FC01E657FE4FC591D491D1
:1005200061110EC09FB7F8948C91E22FE0958E2355
:100530008C932881E223E8839FBFDF91CF910895B8
:100540008FB7F894EC91E22BEC938FBFF6CF83300A
:10055000910528F0880F991F04970197F1F70895E6
:100560003FB7F89480916A0290916B02A0916C025F
:10057000B0916D0226B5A89B05C02F3F19F00196DA
:10058000A11DB11D3FBFBA2FA92F982F8827BC01ED
:10059000CD01620F711D811D911D43E0660F771F14
:1005A000881F991F4A95D1F708958F929F92AF9215
:1005B000BF92CF92DF92EF92FF924B015C010E94BB
:1005C000B0026B017C010E94B0026C197D098E099A
:1005D0009F09683E734081059105A8F321E0821AC6
:1005E0009108A108B10888EEC80E83E0D81EE11C6E
:1005F000F11C81149104A104B10429F7FF90EF903C
:10060000DF90CF90BF90AF909F908F9008952091F2
:100610007602309177022817390771F490917402AD
:1006200080917502981741F0E0917402F0E0E75D67
:10063000FD4F808190E008958FEF9FEF089508951A
:10064000EF92FF920F931F93CF93DF93DC015C96A1
:10065000ED90FC905D97E114F10479F481E090E075
:1006600013969C938E93129790E080E0DF91CF9148
:100670001F910F91FF90EF9008955196ED91FC918D
:10068000529750968C915097982F90950FB75E96F1
:100690002C915E97122F127021FD6095F8942081A5
:1006A000112319F1282B2083E7012197F1F728E086
:1006B000462F50E0308160FF1AC0382B3083E701AD
:1006C0002197F1F7BA0175956795215089F71123A4
:1006D00081F08081892380830FBF5C968D919C91EE
:1006E0000197F1F781E090E0C1CF2923DCCF3923D6
:1006F000E5CF9081892BEFCF209176023091770260
:100700002817390771F4809175022091740290E0E6
:10071000805C9F4F821B910960E470E00E94751E0F
:10072000089590E080E0089520917602309177025C
:1007300028173907B9F490917402809175029817BF
:1007400089F0E0917402F0E0E75DFD4F8081209137
:10075000740230E02F5F3F4F2F73332720937402D2
:1007600090E008958FEF9FEF089520910602260FE5
:100770003327331F21323105ECF42091B402FC0100
:1007800090E080E0243069F082E00895A0910602B4
:100790002191AC014A515E4FA40FB52FB11D2C938E
:1007A0000196861798F380910602680F60930602FF
:1007B00080E0089581E008951092B40281E0809372
:1007C000B30210928E0261E082E10E942A0261E08F
:1007D00083E10E942A02E9EBF0E080818E7F808332
:1007E00080818D7F808380E28093B80085E4809350
:1007F000BC000895CF93DF9391E09093E5018823A7
:10080000B9F0C091B800D091BA008091BC008A7B49
:100810008093BC0060E082E10E942A0260E083E1F4
:100820000E942A020E94DC03D093BA00C093B80051
:10083000DF91CF9108958F929F92AF92BF92CF9206
:10084000DF92EF92FF920F931F93CF93DF93D0919C
:10085000DD02D13208F0D7C0182FC091DC020E940F
:10086000B0026B017C018091B40281116BC082E007
:100870008093B4021093B3028FEF8093B202109270
:10088000B102D093B002ACEBB2E0E0E9F2E080E07C
:10089000D81391C010928F0280918F02CC0FC82B79
:1008A000C0938F0280918E02813009F088C010922F
:1008B0008E020E94B0026B017C0180918F028093B6
:1008C000BB008091B6029091B702A091B802B0919E
:1008D000B902892B8A2B8B2BA1F00E94B0020091C8
:1008E000B6021091B7022091B8023091B9026C198A
:1008F0007D098E099F09061717072807390708F48D
:1009000042C08091BC0083FDD8CF85EC8093BC00B1
:100910000E94B0026B017C018091B402823009F424
:1009200050C08091B2028F3F09F46FC08091B20233
:10093000803209F46CC08091B202803309F469C03E
:1009400084E026C08091B6029091B702A091B802CF
:10095000B091B902892B8A2B8B2B09F484CF0E948A
:10096000B0028090B6029090B702A090B802B0900A
:10097000B9026C197D098E099F0986169706A8068B
:10098000B90608F070CF8091B5020E94FA0385E0A5
:100990001092BB021092DD021092BA02DF91CF9149
:1009A0001F910F91FF90EF90DF90CF90BF90AF908D
:1009B0009F908F9008959D9191938F5F69CF85EE61
:1009C000A5CF8091B6029091B702A091B802B091E4
:1009D000B902892B8A2B8B2B09F49ECF0E94B0027F
:1009E0000091B6021091B7022091B8023091B9027D
:1009F0006C197D098E099F09061717072807390703
:100A000008F08ACFC0CF81E0C3CF80E0C1CF82E0C1
:100A1000BFCF83E0BDCFE091730280917202E817EF
:100A200030F4F0E0EB53FE4F808190E008958FEFBB
:100A30009FEF089590917302809172022FEF3FEF24
:100A4000981748F4E92FF0E0EB53FE4F208130E097
:100A50009F5F90937302C9010895809172029091F3
:100A60007302891B990B0895CF92DF92EF92FF9248
:100A70000F931F93CF93DF937C01CB018A012091C9
:100A8000BA02222389F0EB016B01C40ED51ECC15EE
:100A9000DD0569F06991D701ED91FC910190F0813C
:100AA000E02DC7010995F3CF642F0E94B503C8015B
:100AB000DF91CF911F910F91FF90EF90DF90CF903A
:100AC0000895CF93DF931F92CDB7DEB7698320914E
:100AD000BA022223F9F02091DD02203258F021E001
:100AE00030E0FC013383228390E080E00F90DF91BF
:100AF000CF9108958091BB02E82FF0E0E454FD4FC0
:100B0000998190838F5F8093BB028093DD0281E0A7
:100B100090E0ECCF61E0CE0101960E94B503F7CFE3
:100B200090E080E008958FB7F8948091C4018FBF62
:100B30000895AF92BF92CF92DF92EF92FF920F9300
:100B40001F93CF93DF93EC0188819981892B89F0E2
:100B50006EBD0DB407FEFDCFBEB48B2DDF91CF91DE
:100B60001F910F91FF90EF90DF90CF90BF90AF90CB
:100B700008958885998511E0892B09F010E8AA2449
:100B8000A394862F812309F0A12C062F2C813D816F
:100B90004E815F8160E271EA87E090E00E942C1D47
:100BA000F22EB02EE12CC22ED12CFF2019F0C6015E
:100BB0000E94A7028A85877F09F042C08D858F3FFA
:100BC00089F0902F912381E009F480E08A1551F09B
:100BD000EF85F8898F89992369F19081892B80832A
:100BE000AA24A394E989FA898081998D892B80832D
:100BF000FF2019F0C6010E94A7028E858F3F39F0B1
:100C0000EB89FC898081988D892309F0E12AE989A3
:100C1000FA899081898D8095892380838E858F3F85
:100C200009F0BE2C88859985892BB9F5110F111112
:100C3000BCCF93CF9081809589238083A12CD2CF84
:100C4000E989FA898081998D892B8083FF2019F0A9
:100C5000C6010E94A7028D858F3F49F0EF85F88974
:100C60008F89902F9123A9F09081892B8083E98926
:100C7000FA899081898D8095892380838E858F3F25
:100C800069F2EB89FC898081988D892339F2E12A08
:100C9000C5CF908180958923E9CF1695C8CF8CBDAB
:100CA0009DBD08951F93CF93DF93EA01122FDC01BE
:100CB00011968D919C91DC01ED91FC910280F38164
:100CC000E02D0995C817D90729F4812F0E941B042C
:100CD00091E0811190E0892FDF91CF911F910895CC
:100CE000CF93DF93EC018B818823A1F0888191E081
:100CF0009093BA028093DC021092BB021092DD0244
:100D000081E00E941B0491E0811190E0892FDF9126
:100D1000CF91089510927302109272021092BB024A
:100D20001092DD020E94DC038BE191E090936F0250
:100D300080936E028CE191E0909371028093700237
:100D400081E08B83CE010E947006982F8111CECF57
:100D5000DDCF6F927F928F929F92AF92BF92CF9290
:100D6000DF92EF92FF920F931F93CF93DF9300D008
:100D7000CDB7DEB7FC01211101C020852530D8F5A3
:100D80004787508B618B728B90E080E0022F10E0E0
:100D900080179107B4F4228521110BC0DF01A80F41
:100DA000B91F1B964C93452F562F672F7727019617
:100DB000EFCFD801A81BB90BAE0FBF1F1A964C93EB
:100DC000F2CF6F018BE0C80ED11C86819781898399
:100DD0009A83A080B180A114B10409F444C0E184D5
:100DE000F12C9701200F311FD50114968D919C9104
:100DF0008217930710F480E016C0F501818192817B
:100E0000208131E03093BA022093DC021092BB02C1
:100E10001092DD02E114F104B9F421E0A801B60159
:100E2000C5010E9452060F900F90DF91CF911F9144
:100E30000F91FF90EF90DF90CF90BF90AF909F9079
:100E40008F907F906F900895DC01ED91FC9102806E
:100E5000F381E02DA701BE016F5F7F4F0995E81672
:100E6000F90649F6DACFE280F380E114F10419F2D1
:100E7000248135812115310571F58F77898361844E
:100E8000712CF70180819181892B39F00280F381E7
:100E9000E02D808191810E944F0660E0D7011B9672
:100EA0008C910E942A02FE0131964F015F01C5011B
:100EB0008819990986159705C8F05601C5018C193E
:100EC0009D0980179107C8F4F50161915F01C70181
:100ED0000E949905F3CF2230310511F48068CECFFE
:100EE0002130310561F68F778064C8CFD5016D91CF
:100EF0005D01C7010E949905DACF61E0D7011B9619
:100F00008C910E942A0281E08ECF089508952F923D
:100F10003F924F925F926F927F928F929F92AF9289
:100F2000BF92CF92DF92EF92FF920F931F93CF93D6
:100F3000DF9300D0CDB7DEB7FC017B01642E968134
:100F4000878199838A83C080D180C114D10409F438
:100F500019C1418550E0D60114968D919C9184175A
:100F60009507B8F4912C892D0F900F90DF91CF91B8
:100F70001F910F91FF90EF90DF90CF90BF90AF90B7
:100F80009F908F907F906F905F904F903F902F90A9
:100F90000895F601808191E09093BA028093DC027B
:100FA0001092BB021092DD0220E0BE016F5F7F4F06
:100FB000C6010E945206982E8823A1F2A62CB12CBD
:100FC000D60114968D919C9115978A159B0550F228
:100FD0000C910E94B0021B012C018091B40281117E
:100FE00069C0162D113208F010E281E08093B4023E
:100FF0008093B3029FEF9093B2021092B102910FCF
:101000009093B00280938F0280918F02000F082B83
:1010100000938F0280918E02813009F08FC0109270
:101020008E020E94B0022B013C0180918F028093BE
:10103000BB008091B6029091B702A091B802B09126
:10104000B902892B8A2B8B2BA1F00E94B002209130
:10105000B6023091B7024091B8025091B9026419BA
:10106000750986099709261737074807590708F4AD
:1010700042C08091BC0083FDD8CF85EC8093BC003A
:101080000E94B0022B013C018091B402813009F42E
:1010900057C08091B102811710F41091B102E0E9BC
:1010A000F2E0A5ECB1E080E0811751F191919D93C0
:1010B0008F5FFACF8091B6029091B702A091B802EB
:1010C000B091B902892B8A2B8B2B09F486CF0E9411
:1010D000B0022091B6023091B7024091B80250910F
:1010E000B902621973098409950926173707480759
:1010F000590708F072CF8091B5020E94FA0310E000
:1011000010927302109372021A151B0409F02ACF71
:101110008701C8018E199F098A159B0508F023CF06
:10112000F60181819281DC01ED91FC910284F385CD
:10113000E02D0995F80181938F01EBCF85EE9ECFCD
:101140008091B6029091B702A091B802B091B90215
:10115000892B8A2B8B2B09F497CF0E94B002209108
:10116000B6023091B7024091B8025091B9026419A9
:10117000750986099709261737074807590708F0A0
:1011800083CFB9CF028113810115110509F4EACE8D
:10119000248135812115310581F590689983712C61
:1011A000A184B12CD8018D919C911197892B39F094
:1011B0001296ED91FC91808191810E944F0660E032
:1011C000F80183850E942A02CE0101964C016C0130
:1011D000C601881999098A159B05C8F06701C601DF
:1011E0008E199F0986159705C8F46FEFC8010E94F4
:1011F0009905F60181936F01F2CF2230310511F488
:101200009F77CCCF2130310551F6906CC7CFD601F6
:101210006D916D01C8010E949905DACF61E0D80196
:101220001B968C910E942A02992493949CCECF9372
:10123000DF93EC01BC01655F7F4F48850E94870703
:10124000882301F1488550E030E020E060E070E064
:10125000CB0124173507CCF4982F872F762F6627DC
:10126000EA85E1110AC0FA01E21BF30BEC0FFD1F46
:10127000E2856E2B2F5F3F4FECCFFE01E20FF31F95
:10128000E385F7CF6FEF7FEFCB01DF91CF9108952B
:101290008F929F92AF92BF92CF92DF92EF92FF9286
:1012A0000F931F93CF93DF93EC014A015B01888179
:1012B00099810E9417092A8101E010E002C0000F05
:1012C000111F2A95E2F701501109012E000C220B83
:1012D000330BAB81680179010A2E04C0CC0CDD1CF4
:1012E000EE1CFF1C0A94D2F7C094D094E094F094C2
:1012F000C622D722E822F922E881F981B901A801A2
:10130000482159216A217B2104C0440F551F661FC3
:10131000771FAA95D2F74C295D296E297F29208550
:10132000CF01DF91CF911F910F91FF90EF90DF9050
:10133000CF90BF90AF909F908F900C94A9060F9381
:101340001F93CF93DF93EC01888199810E94170945
:10135000AB01BC012A8181E090E002C0880F991F97
:101360002A95E2F70197092E000CAA0BBB0B2B81E3
:1013700004C076956795579547952A95D2F78C01C5
:101380009D010423152326233723C901B801DF91CA
:10139000CF911F910F910895AF92BF92CF92DF929C
:1013A000EF92FF920F931F93CF93DF93CDB7DEB7EA
:1013B000E8970FB6F894DEBF0FBECDBF8C01FC01DD
:1013C000868D978D1BA21CA21DA21EA29D8B8C8BAD
:1013D0001F8A1E8AFF24F394FD8E8BE390E09B8F7F
:1013E0008A8F1E8E8EE08C8F4EE0BE01695D7F4F2E
:1013F000CE0144960E9487078FA198A59827892738
:101400009827F80195A784A789A59AA598278927E1
:10141000982797A786A78BA59CA598278927982703
:1014200091AB80AB6DA57EA576276727762773AB3A
:1014300062AB8FA598A998278927982795AB84AB8D
:1014400089A99AA998278927982797AB86AB8BA952
:101450009CA998278927982791AF80AF072E000C69
:10146000880B990B0E94B91B20E030E04AEA53E454
:101470000E94CA1D28EB3EE142E152E40E945E1D3B
:10148000F8016283738384839583868D978D188A90
:10149000198A1A8A1B8A9A8389831C821B82FA867C
:1014A0008CE190E098878F831B86F986CE010196A8
:1014B0005C019EAB8DAB82E08FAB83E088AFCE0149
:1014C000C5960E949F09C12CD12CE12CE5E4FE2E8B
:1014D00063307105E1F06230710599F0613071059A
:1014E00009F4D6C0C12CD12CF0E8EF2EFFE3FF2E7B
:1014F000672B69F4C12CD12C50E8E52E56E4F52E6B
:1015000006C0C12CD12C70E8E72E75E4F72EF80147
:1015100064A575A5072E000C880B990B0E94B91BBA
:10152000A70196010E94CA1DF80166837783808710
:10153000918766A577A5072E000C880B990B0E9452
:10154000B91BA70196010E94CA1DF8016287738723
:101550008487958760A971A9072E000C880B990BC9
:101560000E94B91BA70196010E94CA1DF801668757
:101570007787808B918B868D978D188A198A1A8A26
:101580001B8A9A8389831C821B8281E08A872BE1D4
:1015900030E038872F831B868987BEAAADAA82E0F8
:1015A0008FAB83E088AFCE01C5960E949F09C12C06
:1015B000D12C33E0E32E33E4F32E6115710519F1DC
:1015C000C12CD12C23E8E22E22E4F22E61307105E9
:1015D000D1F093E3C92EDC2C93E0E92E92E4F92EAE
:1015E0006230710581F0C12CD12C40E8E42E4FE32C
:1015F000F42E6330710539F483E3C82EDC2C83E8C4
:10160000E82E81E4F82EF80164A975A9072E000CD4
:10161000880B990B0E94B91BA70196010E94CA1D55
:10162000F801628B738B848B958B66A977A9072E43
:10163000000C880B990B0E94B91BA70196010E9410
:10164000CA1DF801668B778B808F918F60AD71AD6D
:10165000072E000C880B990B0E94B91BA70196015D
:101660000E94CA1DF801628F738F848F958FE89650
:101670000FB6F894DEBF0FBECDBFDF91CF911F91A3
:101680000F91FF90EF90DF90CF90BF90AF900895B3
:10169000C12CD12CE12C66E4F62E39CF3F924F922B
:1016A0005F926F927F928F929F92AF92BF92CF92F2
:1016B000DF92EF92FF920F931F93CF93DF937C0102
:1016C0008B016A018FB7F89480908A0290908B0208
:1016D000A0908C02B0908D028FBF87E893E00E94AB
:1016E000CC09F601349680E2382EDF01832D1D925D
:1016F0008A95E9F784E290E0A0E0B0E0F60180830B
:101700009183A283B383C7E8D3E08AA59BA5B0E009
:10171000A0E084839583A683B7838DE090E0A0E06A
:10172000B0E080879187A287B387808A918AA28A56
:10173000B38A8A819B81AC81BD81848B958BA68B7A
:10174000B78BF7013496DF01832D1D928A95E9F757
:10175000412C512C32014394D7014D925D926D92F0
:101760007C9213978EA19FA1B0E0A0E0F701848343
:101770009583A683B7834086518662867386808A66
:10178000918AA28AB38A2AE038EE4CE151E46E8154
:101790007F81888599850E94181CD70154966D9386
:1017A0007D938D939C9357972AE038EE4CE151E45A
:1017B0006A857B858C859D850E94181CF701608F4A
:1017C000718F828F938F2AE038EE4CE151E46E8561
:1017D0007F85888999890E94181CD7015C966D9332
:1017E0007D938D939C935F97F8013496DF011D9252
:1017F0003A94E9F7F801408251826282738288A5A7
:1018000099A5B0E0A0E084839583A683B78384E0A4
:1018100090E0A0E0B0E080879187A287B387808ABC
:10182000918AA28AB38A25E33AEF4EE85CE36A899B
:101830007B898C899D890E94181CF801648B758BAB
:10184000868B978B25E33AEF4EE85CE36E897F89C0
:10185000888D998D0E94181CD80158966D937D93A0
:101860008D939C935B9725E33AEF4EE85CE36A8D9A
:101870007B8D8C8D9D8D0E94181CF801648F758F57
:10188000868F978F81E0DF91CF911F910F91FF900D
:10189000EF90DF90CF90BF90AF909F908F907F9010
:1018A0006F905F904F903F9008950F931F93CF9349
:1018B000DF938C01EB01DC0115968D919C910E94C8
:1018C000CC09D8011596ED91FC918FB7F894409111
:1018D0008A0250918B0260918C0270918D028FBFB1
:1018E0009E012C5F3F4F80E2D9011D928A95E9F756
:1018F00084E290E0A0E0B0E088839983AA83BB8370
:1019000082A593A5B0E0A0E08C839D83AE83BF83C6
:101910008DE090E0A0E0B0E088879987AA87BB8738
:10192000488B598B6A8B7B8B82819381A481B58193
:101930008C8B9D8BAE8BBF8B81E0DF91CF911F9104
:101940000F910895CF92DF92EF92FF920F931F9322
:10195000CF93DF938C01EB01DC0115968D919C9167
:101960000E94CC09F801058116818FB7F894C090C8
:101970008A02D0908B02E0908C02F0908D028FBF93
:10198000FE01349680E2DF011D928A95E9F741E07D
:1019900050E060E070E0488359836A837B83F801FC
:1019A00086A197A1B0E0A0E08C839D83AE83BF8326
:1019B000488759876A877B87C88AD98AEA8AFB8AD7
:1019C0002AE038EE4CE151E466817781808591858B
:1019D0000E94181C6C8B7D8B8E8B9F8B2AE038EEBF
:1019E0004CE151E4D8011A966D917D918D919C91B5
:1019F0001D970E94181C688F798F8A8F9B8F2AE011
:101A000038EE4CE151E4F80166857785808991894B
:101A10000E94181C6C8F7D8F8E8F9F8F81E0DF91CD
:101A2000CF911F910F91FF90EF90DF90CF9008958D
:101A30000F931F93CF93DF938C01EB01DC0115967D
:101A40008D919C910E94CC09F801058116818FB778
:101A5000F89440918A0250918B0260918C027091AF
:101A60008D028FBFFE01349680E2DF011D928A95C0
:101A7000E9F781E090E0A0E0B0E088839983AA8351
:101A8000BB83F80180A591A5B0E0A0E08C839D8385
:101A9000AE83BF8384E090E0A0E0B0E088879987C0
:101AA000AA87BB87488B598B6A8B7B8B25E33AEFE0
:101AB0004EE85CE362897389848995890E94181CC9
:101AC0006C8B7D8B8E8B9F8B25E33AEF4EE85CE32E
:101AD000D80156966D917D918D919C9159970E9458
:101AE000181C688F798F8A8F9B8F25E33AEF4EE819
:101AF0005CE3F801628D738D848D958D0E94181CB6
:101B00006C8F7D8F8E8F9F8F81E0DF91CF911F91A2
:101B10000F9108950C94461F0C94461F0C94461F79
:101B2000FB0101900020E9F73197AF01461B570BED
:101B3000DC01ED91FC910280F381E02D09948F92FC
:101B40009F92AF92BF92EF92FF920F931F93CF930A
:101B5000DF93CDB7DEB7A1970FB6F894DEBF0FBE07
:101B6000CDBF7C01FA01CB0119A2223008F42AE092
:101B70008E010F5D1F4F822E912CB12CA12CBF0125
:101B8000A50194010E942C1DF901CA016A300CF5CF
:101B9000605DD8016E938D01232B242B252B79F7C3
:101BA00090E080E0109721F0BD01C7010E94900DE8
:101BB000A1960FB6F894DEBF0FBECDBFDF91CF91D7
:101BC0001F910F91FF90EF90BF90AF909F908F90DB
:101BD0000895695CDECF4F925F926F927F928F92F1
:101BE0009F92AF92BF92CF92DF92EF92FF92CF93EC
:101BF000DF93EC016A017B01AB019601CB01B601D9
:101C00000E94701E6CE671E081111AC046015701F6
:101C1000E894B7F82FEF3FEF4FE75FE7C501B40156
:101C20000E94701E811126C02FEF3FEF4FE75FE744
:101C3000C501B4010E94B21B1816E4F460E771E01C
:101C4000CE010E94900D7C0168E771E0CE010E94F8
:101C5000900D8E0D9F1DDF91CF91FF90EF90DF9043
:101C6000CF90BF90AF909F908F907F906F905F903C
:101C70004F9008952FEF3FEF4FE75FE4C701B601A4
:101C80000E946B1E18161CF464E771E0D9CF2FEF89
:101C90003FEF4FE75FECC701B6010E94B21B87FD23
:101CA000F3CF20E030E0A901C701B6010E94B21BCA
:101CB000B12CA12C87FF0DC0E881F9810190F08142
:101CC000E02D6DE2CE0109955C01F7FAF094F7F88A
:101CD000F0942AE037ED43EA5BE3C701B6010E94C6
:101CE0005E1D2B013C010E943C1E6B017C010E9489
:101CF000B71B9B01AC01C301B2010E945D1D2B010A
:101D00003C012AE0B701A601CE010E949F0D7C0193
:101D1000EA0CFB1CE881F9810190F081E02D6EE274
:101D2000CE010995E80EF91E20E030E040E251E4D2
:101D3000C301B2010E94181C2B013C010E943C1EF1
:101D40004B01B12CA12C2AE0B501A401CE010E94C7
:101D50009F0DE80EF91EC501B4010E94B71B9B013F
:101D6000AC01C301B2010E945D1D20E030E040E201
:101D700051E40E94181C0E943C1EAB0170E060E020
:101D80002AE0CE010E949F0DE80EF91E5DCF9F92C2
:101D9000AF92BF92CF92DF92EF92FF920F931F9379
:101DA000CF93DF93CDB7DEB7AA970FB6F894DEBF17
:101DB0000FBECDBF8C01DC0197965C934E93969736
:101DC000CA01019699969C938E9398974E5F5F4FA8
:101DD0009B965C934E939A975E962D913C911BA295
:101DE0001CA21DA21EA23D8B2C8B1F8A1E8A81E085
:101DF0008D8F4BE650E05B8F4A8F1E8E8C8F188A3A
:101E0000198A1A8A1B8A3A8329831C821B828A8731
:101E100028E630E038872F831B8689875E01B4E18E
:101E2000AB0EB11CB8A6AFA289A787E08AA741E094
:101E300050E060E070E0CE0187960E944809CE0134
:101E400087960E949F09613071058105910539F4DB
:101E500061E070E080E090E00E94D502F0CF64E69F
:101E600070E080E090E00E94D50220E047E050E082
:101E700060E070E0FE0131966F01CF010E94A9067B
:101E800064E670E080E090E00E94D502D8015E96A2
:101E90008D919C91188A198A1A8A1B8A9A83898340
:101EA0001C821B82FF24F394FA8689E190E09887D4
:101EB0008F831B86F98620E040E050E0BA01C6011E
:101EC0000E94A906F801868D978D188A198A1A8AA8
:101ED0001B8A9A8389831C821B82FA868AE190E09E
:101EE00098878F831B86F986DD8ACC8A83E0E82E6B
:101EF000EE8A1F8A40E050E0BA01C5010E944809FD
:101F0000D8015E968D919C91188A198A1A8A1B8A2B
:101F10009A8389831C821B82FA868BE190E09887E2
:101F20008F831B86F986DD8ACC8A92E0992E9E8A61
:101F3000EF8A41E050E060E070E0C5010E9448098E
:101F4000F801868D978D188A198A1A8A1B8A9A83B6
:101F500089831C821B82FA868CE190E098878F83AC
:101F60001B86F986DD8ACC8A9E8AEF8A40E050E0A3
:101F7000BA01C5010E944809D8015E968D919C91D5
:101F8000188A198A1A8A1B8A9A8389831C821B825F
:101F9000FA868BE690E098878F831B86F98620E08F
:101FA00041E050E060E070E0C6010E94A90664E6EE
:101FB00070E080E090E00E94D502F80180A191A13C
:101FC000009739F0DC01ED91FC910280F381E02D66
:101FD0000995F80182A193A1009739F0DC01ED91F8
:101FE000FC910280F381E02D0995F80184A195A16F
:101FF000009739F0DC01ED91FC910280F381E02D36
:10200000099587E090E00E94AA1EFC0186E291E01B
:102010009183808380E596E0948383831683058390
:10202000D8019196FC93EE93909787E090E00E9400
:10203000AA1EFC0188E191E09183808381E596E00E
:102040009483838316830583D8019396FC93EE9340
:10205000929787E090E00E94AA1EFC018AE091E03E
:102060009183808382E596E094838383168305833E
:10207000D8019596FC93EE93949781E0AA960FB6BB
:10208000F894DEBF0FBECDBFDF91CF911F910F91AE
:10209000FF90EF90DF90CF90BF90AF909F9008950A
:1020A00085ED8093BC008091B6029091B702A0911B
:1020B000B802B091B9020796A11DB11D23E0B695F3
:1020C000A795979587952A95D1F72091BC0024FD77
:1020D00003C01092B40208954091B6025091B70225
:1020E0006091B8027091B902452B462B472B69F3DA
:1020F0000097A105B10541F02AE12A95F1F700C04A
:102100000197A109B109E1CF8091B5020C94FA03BE
:102110000F931F93CF93DF938C01EB0188E2FB01B8
:1021200011928A95E9F74BE050E06BE771E0CE0140
:102130000E949C201B8681E090E0A0E0B0E08C87AC
:102140009D87AE87BF87F80183819481092E000C9B
:10215000AA0BBB0B888B998BAA8BBB8B8DE090E075
:10216000A0E0B0E08C8B9D8BAE8BBF8B1CA21DA220
:102170001EA21FA280E090E0A0E2B2EC8C8F9D8FA7
:10218000AE8FBF8F80E090E0A2EDB2E4888F998F90
:10219000AA8FBB8F84E09DEAA0E4BBE388A399A348
:1021A000AAA3BBA3DF91CF911F910F9108950F9325
:1021B0001F93CF93DF938C01EB0188E2FB01119217
:1021C0008A95E9F74BE050E065E871E0CE010E94A6
:1021D0009C201B8641E050E060E070E04C875D870A
:1021E0006E877F87F80183819481092E000CAA0BEA
:1021F000BB0B888B998BAA8BBB8B4C8B5D8B6E8BAF
:102200007F8B1CA21DA21EA21FA28AE098EEACE149
:10221000B3EC8C8F9D8FAE8FBF8F8AE098EEACE1D0
:10222000B3E4888F998FAA8FBB8F83E29BEDA9E7D8
:10223000BDE388A399A3AAA3BBA3DF91CF911F916C
:102240000F9108950F931F93CF93DF938C01EB01B0
:1022500088E2FB0111928A95E9F74BE050E06FE8C4
:1022600071E0CE010E949C201B8681E090E0A0E0FE
:10227000B0E08C879D87AE87BF87F801838194810A
:10228000092E000CAA0BBB0B888B998BAA8BBB8BDE
:1022900084E090E0A0E0B0E08C8B9D8BAE8BBF8B98
:1022A0001CA21DA21EA21FA287ED93EAABE0B2EC16
:1022B0008C8F9D8FAE8FBF8F87ED93EAABE0B2E43A
:1022C000888F998FAA8FBB8F8AE99BEAABE0B9E32D
:1022D00088A399A3AAA3BBA3DF91CF911F910F91CC
:1022E00008951F920F920FB60F9211242F933F93D0
:1022F0004F935F936F937F938F939F93AF93BF930E
:10230000EF93FF938EED92E00E949B01FF91EF917E
:10231000BF91AF919F918F917F916F915F914F91FD
:102320003F912F910F900FBE0F901F9018951F9205
:102330000F920FB60F9211242F938F939F93EF93C9
:10234000FF93E091EE02F091EF028081E091F402C0
:10235000F091F50282FD1BC090818091F7028F5FA2
:102360008F732091F802821741F0E091F702F0E0BC
:10237000E252FD4F958F8093F702FF91EF919F916D
:102380008F912F910F900FBE0F901F901895808105
:10239000F4CF1F920F920FB60F9211242F933F93F9
:1023A0008F939F93AF93BF9380918A0290918B02FA
:1023B000A0918C02B0918D023091690226E0230F2A
:1023C0002D3758F50296A11DB11D20936902809307
:1023D0008A0290938B02A0938C02B0938D0280911D
:1023E0006A0290916B02A0916C02B0916D0201960D
:1023F000A11DB11D80936A0290936B02A0936C02A1
:10240000B0936D02BF91AF919F918F913F912F91AA
:102410000F900FBE0F901F90189529E8230F039679
:10242000A11DB11DD2CF1F920F920FB60F92112492
:102430002F933F934F935F936F937F938F939F93CC
:10244000AF93BF93EF93FF93E0917602F091770201
:10245000309749F0A685B7858585968D91FF14C084
:102460009C918923A1F4FF91EF91BF91AF919F912E
:102470008F917F916F915F914F913F912F910F902D
:102480000FBE0F901F9018959C91892361F7A38927
:10249000B4899C918589809589238C9386899789B5
:1024A0000197F1F7608D718DA685B785558538E068
:1024B00020E0CB010197F1F7822F90E09595879569
:1024C000282F4C91452309F02068315091F7868DD3
:1024D00081FD20958091750290E001968F73992778
:1024E00030917402381799F0A0917502B0E0A75DA1
:1024F000BD4F2C9380937502828D938D0197F1F7D8
:10250000A389B4898C919589892B8C93ACCF868DC6
:102510008160868FF1CF1F920F920FB60F92112418
:102520002F933F934F935F936F937F938F939F93DB
:10253000AF93BF93EF93FF938091B900887F80366C
:1025400009F44AC0F0F5883209F4A7C018F58031C3
:1025500009F49BC0B8F4882309F4F9C0883009F461
:1025600094C0FF91EF91BF91AF919F918F917F9117
:102570006F915F914F913F912F910F900FBE0F90F0
:102580001F901895883109F488C0803251F78093E4
:10259000B20214C0803409F49DC040F48033B9F312
:1025A0008833F9F68093B20285ECB0C0803509F427
:1025B00085C0883509F496C0883499F60E94501079
:1025C000D0CF883909F48CC038F5883729F050F419
:1025D000883611F0803729F683E08093B402109298
:1025E000280257C0883809F47BC0803919F0803838
:1025F00009F0B7CF80912802803208F071C0E091D5
:10260000280281E08E0F809328028091BB00F0E0C9
:10261000E85FFD4F80833DC0803B39F0E0F4803AB5
:1026200009F479C0883A09F09CCF84E08093B40221
:102630001092070210920602E0916E02F0916F0272
:1026400009958091060281110FC081E080930602F6
:102650001092E60109C0803C09F4A6CF883C09F439
:10266000A3CF883B09F07DCFE091070281E08E0F78
:1026700080930702F0E0EA51FE4F80818093BB0017
:10268000909107028091060229C080918F02809369
:10269000BB0085EC8093BC0064CF9091B102809127
:1026A000B002981758F5E091B10281E08E0F809347
:1026B000B102F0E0E057FD4F8081E9CFE091B10237
:1026C00081E08E0F8093B1028091BB00F0E0E05773
:1026D000FD4F80839091B1028091B0029817C8F2AB
:1026E00085E8D8CFE091B10281E08E0F8093B102EE
:1026F0008091BB00F0E0E057FD4F80838091B302F2
:1027000081115CCF81E080938E0284EA8093BC00CB
:102710001092B40226CF85EC8093BC001092B402D4
:1027200080912802803230F4E0912802F0E0E85FE6
:10273000FD4F10826091280270E0E0917002F091EC
:10274000710288E092E00995109228020ACF109257
:10275000B20234CF1092E1021092E00288EE93E0D0
:10276000A0E0B0E08093E2029093E302A093E40241
:10277000B093E50224E331E03093DF022093DE02E0
:1027800025EC30E03093EB022093EA0224EC30E0B9
:102790003093ED022093EC0220EC30E03093EF0216
:1027A0002093EE0221EC30E03093F1022093F0020E
:1027B00022EC30E03093F3022093F20226EC30E07A
:1027C0003093F5022093F4021092F7021092F8026F
:1027D0001092F9021092FA0210927E0310927D0379
:1027E00080937F0390938003A0938103B09382032F
:1027F00026E431E030937C0320937B031092C403E2
:102800001092C3038093C5039093C603A093C7039C
:10281000B093C8038EE591E09093C2038093C10307
:102820001092D8031092D7031092DA031092D903B2
:102830001092DC031092DB031092DE031092DD0392
:102840006091DF036E7F6D7F6093DF03669561703B
:1028500081E0682782E00E942A0261E082E00E9413
:102860007602EAEAF1E0E491E093D103E6E9F1E0EF
:10287000E491F0E0EE0FFF1FE657FE4F8591949133
:102880009093D3038093D20360E083E00E947602AA
:102890008091DF0381FD04C061E083E00E942A0291
:1028A00083E08093CD03EBEAF1E0E491E093CE0383
:1028B000E7E9F1E0E491F0E0EE0FFF1FE058FE4F92
:1028C000859194919093D0038093CF0388E591E014
:1028D00090938803809387031092A6031092A50318
:1028E0001092A8031092A7031092AA031092A903B2
:1028F0001092AC031092AB030895CF93DF93CDB742
:10290000DEB7CC56D1090FB6F894DEBF0FBECDBFEF
:10291000789484B5826084BD84B5816084BD85B5BA
:10292000826085BD85B5816085BD80916E008160C6
:1029300080936E001092810080918100826080936C
:10294000810080918100816080938100809180006E
:102950008160809380008091B10084608093B10099
:102960008091B00081608093B00080917A00846093
:1029700080937A0080917A00826080937A008091BF
:102980007A008E7F80937A0080917A0080688093AD
:102990007A001092C100E091EE02F091EF0282E025
:1029A0008083E091EA02F091EB021082E091EC0268
:1029B000F091ED0287E680831092F602E091F20238
:1029C000F091F30286E08083E091F002F091F10251
:1029D000808180618083E091F002F091F10280813A
:1029E00088608083E091F002F091F102808180683C
:1029F0008083E091F002F091F10280818F7D8083ED
:102A000061E088E00E94760261E086E00E94760242
:102A100061E084E00E94760260E08FE00E9476022E
:102A20008091A5039091A603009711F00E94461F84
:102A300086E090E00E94AA1E7C0188E6F701808370
:102A40008BE793E092838183138280E290E0958309
:102A50008483F092A603E092A50310927302109271
:102A600072021092BB021092DD020E94DC038BE125
:102A700091E090936F0280936E028CE191E09093CD
:102A800071028093700211E0F7011383C7010E9465
:102A90007006882331F18091A5039091A603188ACE
:102AA000198A1A8A1B8A9A8389831C821B821A8735
:102AB00085E790E098878F831B861987CE01019662
:102AC0007C010E941709683671058105910549F45A
:102AD00040E050E0BA0187E893E00E94C70E811100
:102AE00013C069E971E08EED92E00E94900D68E7F5
:102AF00071E08EED92E00E94900D6AE070E080E05F
:102B000090E00E94D502F9CF65EB71E08EED92E086
:102B10000E94900D68E771E08EED92E00E94900DAA
:102B20008091A5039091A603188A198A1A8A1B8A94
:102B30009A8389831C821B821A878CE190E0988794
:102B40008F831B861987FEA2EDA222E0D22EDFA280
:102B500003E008A742E050E060E070E0CE01859617
:102B60000E9448098091A5039091A603188A198AAA
:102B70001A8A1B8A9A8389831C821B821A878BE19B
:102B800090E098878F831B861987FEA2EDA2DFA2B3
:102B900008A741E050E060E070E0CE0185960E9419
:102BA00048098091A5039091A603188A198A1A8A68
:102BB0001B8A9A8389831C821B821A878AE190E090
:102BC00098878F831B861987FEA2EDA20FA318A6F4
:102BD00044E050E060E070E0CE0185960E94480934
:102BE00064E670E080E090E00E94D5021092DC0381
:102BF0001092DB031092DA031092D9031092D803DB
:102C00001092D7038DEC90E09093DE038093DD0368
:102C10009091CD03963108F047C025E530E0309320
:102C2000D8032093D7032BEC30E03093DA032093C2
:102C3000D90320E930E03093DC032093DB032091BB
:102C4000680084E0983048F031E09E3008F430E0CD
:102C500081E001C0880F3A95EAF7822B80936800E3
:102C60002DE630E0983050F02BE630E09E3030F02A
:102C70002CE630E0963110F030E020E03093D503C0
:102C80002093D403292F30E0983008F0DDC081E094
:102C900001C0880F9A95EAF78093D6038091DD03EF
:102CA0009091DE030197F1F78091DB039091DC03B3
:102CB000892B49F1E0917602F091770293E0E13CB3
:102CC000F90709F1309739F0A389B4899C91858976
:102CD000809589238C938091DF038E7F8093DF031F
:102CE000109275021092740281EC93E09093770237
:102CF00080937602E091D403F091D5038081909186
:102D0000D603892B808344244A9493E0592E612C66
:102D1000712C80E0882E80E0982E81EC93E00E9458
:102D20007C03181619060CF06BC281EC93E00E942C
:102D30007C03892B09F464C281EC93E00E94940324
:102D4000813609F0C8C061E088E00E942A0261E093
:102D500086E00E942A0261E084E00E942A0200913B
:102D60008802109189020A3011050CF087C00E9478
:102D70000A0128E833E1DC010E94891EA3019201C7
:102D80000E94D61CCA01B9010E94B91B5B016C01EB
:102D9000AC019B0160E070E48CE995E40E945D1D4C
:102DA00020E030E240E056E40E94181CA6019501A4
:102DB0000E94CA1D9B01AC0160E074E284E799E4C3
:102DC0000E94CA1D5B016C0120E030E04AE754E438
:102DD0000E94B21B18160CF444C020E030E040EA18
:102DE00052E4C601B5010E94CA1D6093840270932B
:102DF000850280938602909387022091840230910D
:102E00008502409186025091870260918002709104
:102E1000810280918202909183020E945E1D6093E4
:102E200080027093810280938202909383020F5FED
:102E30001F4F109389020093880262E370E080E0E4
:102E400090E00E94D5028BCF9E3040F4285031098B
:102E500081E001C0880F2A95EAF71ECF2E50310974
:102E6000F7CF20E030E04AE754E4C601B5010E9404
:102E70005D1D20E030E040EF51E4B5CFB801110F07
:102E8000880B990B0E94B91B9B01AC0160918002D9
:102E90007091810280918202909183020E94CA1DEA
:102EA000AB01BC0140937C0250937D0260937E0293
:102EB00070937F028EED92E00E94EB0D40917C02B8
:102EC00050917D0260917E0270917F0281EC93E0CF
:102ED0000E94EB0D2ACF823609F094C0A701BE01F3
:102EE0006B5D7F4FCE01875B9F4F0E944E0B009121
:102EF000880210918902A0907802B0907902C09067
:102F00007A02D0907B020A301105FCF4A6019501EB
:102F100021966CAD7DAD8EAD9FAD21970E945E1D5B
:102F2000609378027093790280937A0290937B0287
:102F30000F5F1F4F109389020093880264EF71E0C6
:102F400080E090E00E94D502D2CFB801110F880B2B
:102F5000990B0E94B91B9B01AC01C601B5010E94EF
:102F6000CA1DAB01BC014093780250937902609373
:102F70007A0270937B028EED92E00E94EB0D6091DD
:102F800078027091790280917A0290917B02870198
:102F900022E044E00E945D195C01009759F1FC01B8
:102FA00001900020E9F731978F01081B190BB80138
:102FB0006F5F7F4F90E080E00E94CF1F6C01009711
:102FC000F1F0FC011082B5010E949520A801B60124
:102FD00081EC93E00E941D0168E771E081EC93E0D1
:102FE0000E94900DC114D10409F49FCEC6010E9425
:102FF000461F9BCE10E000E0D12CC12CE7CF10E0A3
:1030000000E0E4CF833609F0AAC061E088E00E94C6
:103010002A0261E086E00E942A0261E084E00E94C8
:103020002A020091880210918902063411050CF0E1
:1030300079C00E940A0128E833E1DC010E94891E60
:10304000A30192010E94D61CCA01B9010E94B91BBA
:103050005B016C01AC019B0160E070E48CE995E4DC
:103060000E945D1D20E030E240E056E40E94181C02
:10307000A60195010E94CA1D9B01AC0160E074E2AB
:1030800084E799E40E94CA1D5B016C0120E030E0F6
:103090004AE754E40E94B21B1816BCF120E030E06D
:1030A00040EA52E4C601B5010E94CA1D6093840241
:1030B0007093850280938602909387022091840208
:1030C0003091850240918602509187026091800282
:1030D0007091810280918202909183020E945E1D14
:1030E00060938002709381028093820290938302A6
:1030F0000F5F1F4F109389020093880264EF71E005
:1031000080E090E00E94D5028CCF20E030E04AE7DA
:1031100054E4C601B5010E945D1D20E030E040EF9F
:1031200051E4C2CFB801110F880B990B0E94B91B53
:103130009B01AC01609180027091810280918202BA
:10314000909183020E94CA1DAB01BC0140937C0296
:1031500050937D0260937E0270937F02B7CE8436D7
:1031600009F0E3CDA701BE016B5D7F4FCE01875B08
:103170009F4F0E944E0B0091880210918902A090EF
:103180007802B0907902C0907A02D0907B02063427
:103190001105FCF4A601950121966CAD7DAD8EADB7
:1031A0009FAD21970E945E1D609378027093790213
:1031B00080937A0290937B020F5F1F4F10938902D6
:1031C0000093880264EF71E080E090E00E94D502F5
:1031D000D2CFB801110F880B990B0E94B91B9B012C
:1031E000AC01C601B5010E94CA1DAB01BC014093F0
:1031F00078025093790260937A0270937B0266CED4
:103200008114910409F489CD0E948701882309F46F
:1032100080CD0E9400007DCD88E591E090938803E9
:10322000809387038091A7039091A803009739F0BA
:10323000DC01ED91FC910280F381E02D09958091F4
:10324000A9039091AA03009739F0DC01ED91FC915C
:103250000280F381E02D09958091AB039091AC033E
:10326000009739F0DC01ED91FC910280F381E02DB3
:1032700009958091A5039091A603009711F00E94F3
:10328000461F8EE591E09093C2038093C103809125
:10329000760290917702815C934071F4E091D403BF
:1032A000F091D50390818091D60380958923808306
:1032B00010927702109276020895EF920F931F9367
:1032C000CF93DF93E80134E047FD34E1042E000C96
:1032D000550B57FF03C0519541955109E32E022F1D
:1032E000242FAE010E947B19CE01DF91CF911F9157
:1032F0000F91EF900895A9E0B0E0E1E8F9E10C94B6
:10330000FB1C6A01F22EB02E102FFBE3AF2EA0168D
:1033100008F41BE31F5F012F27E0AE014F5F5F4FF3
:103320000E94DA1ABC018981982F9970913009F4B2
:103330003FC09BE2E1FC04C09E2D9170E0FC3AC0CE
:103340005E2D5071E82FE87083FF46C084E0911134
:1033500001C083E0EF2DE81B8F1508F0E0E0D601F7
:103360008E2F20E2552351F1992329F0D6019C9309
:10337000C60101966C0196012D5F3F4FE2FE24C00D
:103380008EE4D6018C9391E411969C93119712963A
:103390008C93D9018E2F90E281111BC0E20FF32F85
:1033A000F11D10828EEF9FEF2996ECE00C94171D13
:1033B0009DE2C6CF90E2C4CF2D9381508111FCCF06
:1033C000CE0ED11CE0E0D0CF8EE6D6018C9391E6F4
:1033D000DBCF9D938150E0CF482F447082FF3DC0EA
:1033E00084E0911101C083E08F1510F4EF2DE81BEC
:1033F000D6018E2F20E2552309F1992329F0D60119
:103400009C93C60101966C0196012D5F3F4FE2FE31
:103410001BC089E4D6018C938EE411968C9311978E
:1034200086E412968C93D9018E2F90E2882309F4BA
:10343000B5CF9D938150FACF2D9381508111FCCF50
:10344000CE0ED11CE0E0D9CF89E6D6018C938EE672
:1034500011968C93119786E6E4CF9B0177FF02C00B
:1034600030E020E0A1E0B0E0911102C0B0E0A0E0C7
:10347000F9013196AE0FBF1F8B2C912CBB2009F4A4
:1034800061C05401EFEFAE1ABE0AAA0DBB1DFA16B9
:103490001B0619F014F04F2D4A1B511188C0E3FC94
:1034A00059C07601A42FB0E2A1114FC0C40ED11CA7
:1034B000992309F45BC040E0D6011196F601908390
:1034C0006D01552309F448C0012F060F9A81582F2A
:1034D000507184FF03C0913309F4015010160CF0B1
:1034E00047C0093008F008E0EEE2FE2E5B01A01AAA
:1034F000B10885019194819491082F3F320729F4F6
:10350000D601FC92F60131966F016217730794F1B0
:10351000021713077CF5DB01A21BB30BAA24A394AB
:10352000B12CAC0EBD1EAA0DBB1D11968C91215065
:103530003109D601119628153905F4F0F60180837A
:103540006D01DBCFB12CA12CA0CFF701B1937F018E
:10355000A150AACF9111B0CFD601942F50E302C051
:103560005D9391509111FCCFC40ED11C40E0ACCFC3
:1035700001E0BACF80E3DBCF6217730731F49633F3
:1035800088F4953311F4552369F0F6018083FD0129
:10359000842F90E2811108C0A40FB11D1C9290E00D
:1035A00080E002CF81E3F1CF91938150F3CF91116D
:1035B00083CF8ACF283008F027E03327DA01990F2C
:1035C000311D87FD916000966105710539F4326007
:1035D0002E5F3D9330E32A95E1F708959F3F30F049
:1035E00080387105610509F03C5F3C5F3D93913087
:1035F00008F08068911DDF93CF931F930F93FF9284
:10360000EF92192F987F9695E92F96959695E90F49
:10361000FF27EE53FF4F99273327EE24FF24A701FE
:10362000E70105900894079428F4360FE71EF81E6A
:10363000491F511D660F771F881F991F0694A1F718
:103640000590079428F4E70EF81E491F561FC11D68
:10365000770F881F991F661F0694A1F7059007949E
:1036600028F4F80E491F561FC71FD11D880F991F38
:10367000661F771F0694A1F70590079420F4490F61
:10368000561FC71FD81F990F661F771F881F0694E4
:10369000A9F784911095177041F0D695C795579565
:1036A0004795F794E7941A95C1F7E8E6F0E0689437
:1036B0001590159135916591959105907FE27395DF
:1036C000E118F10A430B560BC90BD009C0F7E10C06
:1036D000F11E431F561FC91FD01D7EF4703311F415
:1036E0008A95E6CFE894015030F0080F0AF40027DD
:1036F000021708F4202F2395022F7A3328F079E35C
:103700007D932A95E9F710C07D932A9589F6069452
:1037100097956795379517951794E118F10A430B1C
:10372000560BC90BD00998F023957E9173957A3387
:1037300008F070E37C932013B8F77E9170617D935D
:1037400030F0839571E37D9370E32A95E1F71124BE
:10375000EF90FF900F911F91CF91DF91992787FDF7
:10376000909508950E94F41B08F481E00895E89470
:1037700009C097FB3EF490958095709561957F4FB9
:103780008F4F9F4F9923A9F0F92F96E9BB27939567
:10379000F695879577956795B795F111F8CFFAF477
:1037A000BB0F11F460FF1BC06F5F7F4F8F4F9F4FA8
:1037B00016C0882311F096E911C0772321F09EE806
:1037C000872F762F05C0662371F096E8862F70E06C
:1037D00060E02AF09A95660F771F881FDAF7880F46
:1037E0009695879597F90895990F0008550FAA0B9C
:1037F000E0E8FEEF16161706E807F907C0F0121604
:103800001306E407F50798F0621B730B840B950B06
:1038100039F40A2661F0232B242B252B21F408955B
:103820000A2609F4A140A6958FEF811D811D0895F8
:103830000E942B1C0C949C1C0E948E1C38F00E9431
:10384000951C20F0952311F00C94851C0C948B1C76
:1038500011240C94D01C0E94AD1C70F3959FC1F3F1
:10386000950F50E0551F629FF001729FBB27F00D2E
:10387000B11D639FAA27F00DB11DAA1F649F662783
:10388000B00DA11D661F829F2227B00DA11D621FD2
:10389000739FB00DA11D621F839FA00D611D221F8C
:1038A000749F3327A00D611D231F849F600D211D70
:1038B000822F762F6A2F11249F5750409AF0F1F0F3
:1038C00088234AF0EE0FFF1FBB1F661F771F881F5C
:1038D00091505040A9F79E3F510580F00C94851CF3
:1038E0000C94D01C5F3FE4F3983ED4F38695779513
:1038F0006795B795F795E7959F5FC1F7FE2B880F02
:10390000911D9695879597F9089597F99F6780E897
:1039100070E060E008959FEF80EC089500240A9421
:103920001616170618060906089500240A9412169A
:103930001306140605060895092E0394000C11F4CD
:10394000882352F0BB0F40F4BF2B11F460FF04C07A
:103950006F5F7F4F8F4F9F4F089557FD9058440FD3
:10396000551F59F05F3F71F04795880F97FB991FDE
:1039700061F09F3F79F0879508951216130614069B
:10398000551FF2CF4695F1DF08C016161706180628
:10399000991FF1CF86957105610508940895E89403
:1039A000BB2766277727CB0197F90895052E97FB4C
:1039B0001EF400940E94ED1C57FD07D00E942C1DA0
:1039C00007FC03D04EF40C94ED1C509540953095B7
:1039D00021953F4F4F4F5F4F08959095809570957B
:1039E00061957F4F8F4F9F4F08952F923F924F9237
:1039F0005F926F927F928F929F92AF92BF92CF927F
:103A0000DF92EF92FF920F931F93CF93DF93CDB787
:103A1000DEB7CA1BDB0B0FB6F894DEBF0FBECDBFFF
:103A200009942A88398848885F846E847D848C84D0
:103A30009B84AA84B984C884DF80EE80FD800C81D9
:103A40001B81AA81B981CE0FD11D0FB6F894DEBFBC
:103A50000FBECDBFED010895A1E21A2EAA1BBB1B1C
:103A6000FD010DC0AA1FBB1FEE1FFF1FA217B3074A
:103A7000E407F50720F0A21BB30BE40BF50B661F60
:103A8000771F881F991F1A9469F760957095809524
:103A900090959B01AC01BD01CF010895A29FB0019B
:103AA000B39FC001A39F700D811D1124911DB29F72
:103AB000700D811D1124911D08955058BB27AA2710
:103AC0000E94751D0C949C1C0E948E1C38F00E9454
:103AD000951C20F039F49F3F19F426F40C948B1CAC
:103AE0000EF4E095E7FB0C94851CE92F0E94AD1CB9
:103AF00058F3BA17620773078407950720F079F423
:103B0000A6F50C94CF1C0EF4E0950B2EBA2FA02D29
:103B10000B01B90190010C01CA01A0011124FF277A
:103B2000591B99F0593F50F4503E68F11A16F04075
:103B3000A22F232F342F4427585FF3CF4695379574
:103B40002795A795F0405395C9F77EF41F16BA0B39
:103B5000620B730B840BBAF09150A1F0FF0FBB1FE7
:103B6000661F771F881FC2F70EC0BA0F621F731F30
:103B7000841F48F4879577956795B795F7959E3F8D
:103B800008F0B0CF9395880F08F09927EE0F97951E
:103B9000879508950E94DE1D0C949C1C0E94951C24
:103BA00058F00E948E1C40F029F45F3F29F00C94DD
:103BB000851C51110C94D01C0C948B1C0E94AD1CC4
:103BC00068F39923B1F3552391F3951B550BBB274C
:103BD000AA2762177307840738F09F5F5F4F220F91
:103BE000331F441FAA1FA9F335D00E2E3AF0E0E888
:103BF00032D091505040E695001CCAF72BD0FE2FD2
:103C000029D0660F771F881FBB1F26173707480765
:103C1000AB07B0E809F0BB0B802DBF01FF2793581D
:103C20005F4F3AF09E3F510578F00C94851C0C9440
:103C3000D01C5F3FE4F3983ED4F386957795679563
:103C4000B795F7959F5FC9F7880F911D9695879552
:103C500097F90895E1E0660F771F881FBB1F621771
:103C600073078407BA0720F0621B730B840BBA0B2F
:103C7000EE1F88F7E09508950E94B51C88F09F57C5
:103C800098F0B92F9927B751B0F0E1F0660F771F80
:103C9000881F991F1AF0BA95C9F714C0B13091F076
:103CA0000E94CF1CB1E008950C94CF1C672F782F91
:103CB0008827B85F39F0B93FCCF38695779567953B
:103CC000B395D9F73EF490958095709561957F4FA7
:103CD0008F4F9F4F08950E94F41B08F48FEF0895B3
:103CE0000E94F41B880B990B089597FB072E16F47E
:103CF000009407D077FD09D00E94901E07FC05D0E4
:103D00003EF4909581959F4F0895709561957F4FF2
:103D100008950E944E1DB7FF0895821B930B0895CE
:103D2000AA1BBB1B51E107C0AA1FBB1FA617B707E1
:103D300010F0A61BB70B881F991F5A95A9F78095FD
:103D40009095BC01CD010895EE0FFF1F0590F491F1
:103D5000E02D09940F931F93CF93DF938230910549
:103D600010F482E090E0E091E203F091E30330E0B0
:103D700020E0B0E0A0E0309799F42115310509F476
:103D80004AC0281B390B24303105D8F58A819B8124
:103D90006115710589F1FB0193838283FE0111C0D6
:103DA000408151810281138148175907E0F048177B
:103DB000590799F4109761F012960C931297139685
:103DC0001C933296CF01DF91CF911F910F910895EF
:103DD0000093E2031093E303F4CF2115310551F072
:103DE0004217530738F0A901DB019A01BD01DF0139
:103DF000F801C1CFEF01F9CF9093E3038093E20381
:103E0000CDCFFE01E20FF31F819391932250310930
:103E100039832883D7CF2091E0033091E103232B0E
:103E200041F420910201309103013093E10320938A
:103E3000E00320910001309101012115310541F489
:103E40002DB73EB74091040150910501241B350B5D
:103E5000E091E003F091E103E217F307A0F42E1BD9
:103E60003F0B2817390778F0AC014E5F5F4F2417DE
:103E7000350748F04E0F5F1F5093E1034093E00376
:103E8000819391939FCFF0E0E0E09CCFCF93DF93BD
:103E90000097E9F0FC01329713821282A091E203AD
:103EA000B091E303ED0130E020E01097A1F4208110
:103EB0003181820F931F2091E0033091E103281795
:103EC000390709F061C0F093E103E093E003DF916B
:103ED000CF910895EA01CE17DF07E8F54A815B81AB
:103EE0009E0141155105B1F7E901FB83EA83499130
:103EF0005991C40FD51FEC17FD0761F480819181A2
:103F00000296840F951FE9019983888382819381AA
:103F10009B838A83F0E0E0E012968D919C91139749
:103F20000097B9F52D913C911197CD010296820F22
:103F3000931F2091E0033091E1032817390739F6E8
:103F4000309751F51092E3031092E203B093E1032E
:103F5000A093E003BCCFD383C28340815181840FFF
:103F6000951FC817D90761F44E5F5F4F888199810B
:103F7000480F591F518340838A819B819383828399
:103F80002115310509F0B0CFF093E303E093E2038C
:103F90009ECFFD01DC01C0CF13821282D7CFB0E0EB
:103FA000A0E0E5EDFFE10C94F71C8C01009751F4C3
:103FB000CB010E94AA1E8C01C801CDB7DEB7E0E19B
:103FC0000C94131DFC01E60FF71F9C0122503109D0
:103FD000E217F30708F49DC0D901CD91DC91119748
:103FE000C617D70798F0C530D10530F3CE01049736
:103FF0008617970708F3C61BD70B2297C193D19357
:104000006D937C93CF010E94461FD6CF5B01AC1A03
:10401000BD0A4C018C0E9D1EA091E203B091E303FA
:10402000512C412CF12CE12C109731F58091E003BB
:104030009091E1038815990509F05CC04616570672
:1040400008F058C08091000190910101009741F45F
:104050008DB79EB74091040150910501841B950BCB
:10406000E817F90708F055C0F093E103E093E00387
:10407000F90171836083A0CF8D919C911197129665
:104080006C90129713967C901397A815B90559F563
:104090006C0142E0C40ED11CCA14DB0420F1AC0157
:1040A0004A195B09DA011296159780F062827382D1
:1040B00051834083D9016D937C93E114F10471F035
:1040C000D7011396FC93EE93129776CF22968C0F1E
:1040D0009D1FF90191838083F301EFCFF093E303F8
:1040E000E093E20369CF4816590608F42C017D01DC
:1040F000D3019ACFCB010E94AA1E7C01009749F000
:10410000AE01B8010E948C20C8010E94461F8701A1
:1041100053CF10E000E050CFFB01DC0102C0019062
:104120000D9241505040D8F70895FB01DC010190F9
:104130000D920020E1F70895FB01DC014150504051
:1041400048F001900D920020C9F701C01D92415026
:104150005040E0F7089510E0CFEDD0E004C0FE013C
:104160000E94A41E2196C03ED107C9F7F894FFCF44
:104170000000E40380000000000085078A0D860728
:10418000180D22110000000085078C0D8607A20C77
:10419000D7100000000085078E0D8607550C88108B
:1041A00000000000BD011D014A010A027B01590106
:1041B0006D01000000006105340590051F032D0509
:1041C0001A050B0500000000C70E000000002003C8
:1041D0001D0190051F037C03940307036E616E00AD
:1041E000696E66006F7666000D0A004D50553630D8
:1041F00035305F54004D5055363035305F41004DFD
:104200005055363035305F47004661696C65642033
:10421000746F2066696E64204D50553630353020FD
:1042200063686970004D50553630353020466F75E3
:044230006E64210097
:107800000C94343C0C94513C0C94513C0C94513CE1
:107810000C94513C0C94513C0C94513C0C94513CB4
:107820000C94513C0C94513C0C94513C0C94513CA4
:107830000C94513C0C94513C0C94513C0C94513C94
:107840000C94513C0C94513C0C94513C0C94513C84
:107850000C94513C0C94513C0C94513C0C94513C74
:107860000C94513C0C94513C11241FBECFEFD8E036
:10787000DEBFCDBF11E0A0E0B1E0EAE8FFE702C063
:1078800005900D92A230B107D9F712E0A2E0B1E065
:1078900001C01D92AD30B107E1F70E942D3D0C945F
:1078A000C33F0C94003C982F95959595959595958B
:1078B000905D8F708A307CF0282F295A8091C0000B
:1078C00085FFFCCF9093C6008091C00085FFFCCF60
:1078D0002093C6000895282F205DF0CF982F809127
:1078E000C00085FFFCCF9093C6000895EF92FF92F1
:1078F0000F931F93EE24FF2487018091C00087FD22
:1079000017C00894E11CF11C011D111D81E2E8164D
:1079100081EAF80687E0080780E0180770F3E09135
:107920000401F091050109958091C00087FFE9CF1E
:107930008091C6001F910F91FF90EF9008950E94D3
:10794000763C982F8091C00085FFFCCF9093C600B5
:1079500091362CF490330CF09053892F089597555D
:10796000892F08951F930E949F3C182F0E949F3CCF
:107970001295107F810F1F9108951F93182F882350
:1079800021F00E94763C1150E1F71F9108951F935A
:10799000182F0E94763C803249F0809103018F5F5E
:1079A000809303018530C1F01F9108958091C0003C
:1079B00085FFFCCF84E18093C6008091C00085FFE5
:1079C000FCCF1093C6008091C00085FFFCCF80E102
:1079D0008093C6001F910895E0910401F091050184
:1079E00009951F9108950E94763C803241F0809164
:1079F00003018F5F80930301853081F008958091AA
:107A0000C00085FFFCCF84E18093C6008091C00058
:107A100085FFFCCF80E18093C6000895E0910401CA
:107A2000F09105010995089548EC50E08823A1F0F4
:107A30002D9A28EE33E0FA013197F1F721503040CA
:107A4000D1F72D9828EE33E0FA013197F1F7215064
:107A50003040D1F7815061F708953F924F925F9285
:107A60006F927F928F929F92AF92BF92CF92DF924E
:107A7000EF92FF920F931F93CF93DF93000082E06A
:107A80008093C00080E18093C4001092C50088E11B
:107A90008093C10086E08093C2005098589A259A3E
:107AA00081E00E94143D24E1F22E9EE1E92E85E959
:107AB000D82E0FE0C02E10E1B12EAA24A394B1E479
:107AC0009B2EA6E58A2EF2E57F2EE0E26E2E79E46B
:107AD000572E63E5462E50E5352E0E94763C8033C6
:107AE000B1F18133B9F1803409F46FC0813409F404
:107AF00076C0823409F485C0853409F488C08035A5
:107B000031F1823521F1813511F1853509F485C0D6
:107B1000863509F48DC0843609F496C0843709F49B
:107B200003C1853709F472C1863709F466C08091B4
:107B300003018F5F80930301853079F6E0910401A2
:107B4000F091050109950E94763C803351F60E9420
:107B5000F33CC3CF0E94763C803249F78091C0004D
:107B600085FFFCCFF092C6008091C00085FFFCCF5E
:107B70009092C6008091C00085FFFCCF8092C60025
:107B80008091C00085FFFCCF7092C6008091C0003C
:107B900085FFFCCF6092C6008091C00085FFFCCFBE
:107BA0005092C6008091C00085FFFCCF4092C60075
:107BB0008091C00085FFFCCF3092C6008091C0004C
:107BC00085FFFCCFB092C60088CF0E94763C8638F5
:107BD00008F4BDCF0E94763C0E94F33C7ECF0E9409
:107BE000763C803809F49CC0813809F40BC1823896
:107BF00009F430C1883909F48FC080E00E94C73C85
:107C00006CCF84E10E94BD3C0E94F33C66CF85E0CE
:107C10000E94BD3C0E94F33C60CF0E94763C809362
:107C200006010E94763C809307010E94F33C55CFE9
:107C30000E94763C803309F411C183E00E94BD3C70
:107C400080E00E94C73C49CF0E94763C80930902A5
:107C50000E94763C8093080280910C028E7F809374
:107C60000C020E94763C853409F409C18091080217
:107C700090910902892B89F000E010E00E94763C87
:107C8000F801E85FFE4F80830F5F1F4F809108026D
:107C9000909109020817190788F30E94763C8032F8
:107CA00009F045CF80910C0280FFF5C0609106017C
:107CB00070910701660F771F7093070160930601AB
:107CC000A0910802B09109021097C9F0E8E0F1E034
:107CD0009B01AD014E0F5F1FF999FECF32BD21BD53
:107CE000819180BDFA9AF99A2F5F3F4FE417F5070B
:107CF00099F76A0F7B1F70930701609306018091CB
:107D0000C00085FFFCCFF092C6008091C00085FFC7
:107D1000FCCFB092C600E1CE83E00E94C73CDDCE2E
:107D200082E00E94C73CD9CE0E94763C8093090233
:107D30000E94763C80930802809106019091070191
:107D4000880F991F90930701809306010E94763C4B
:107D5000853409F49AC080910C028E7F80930C02C6
:107D60000E94763C803209F0B8CE8091C00085FF39
:107D7000FCCFF092C600A0910802B09109021097C2
:107D8000C1F180910C02082F0170182F1695117007
:107D9000E0910601F0910701AF014F5F5F4FBA011B
:107DA00020E030E00023B1F4112339F49491809164
:107DB000C00085FFFCCF9093C6002F5F3F4FCB01E3
:107DC0000196FA012A173B0780F4BC014F5F5F4F11
:107DD000002351F3F999FECFF2BDE1BDF89A90B5B9
:107DE0008091C00085FFFCCFE6CF709307016093C0
:107DF00006018091C00085FDE5CE8091C00085FF21
:107E0000F8CFE0CE81E00E94C73C67CE0E94763C6E
:107E1000803209F08CCE8091C00085FFFCCFF092BB
:107E2000C6008091C00085FFFCCFE092C600809123
:107E3000C00085FFFCCFD092C6008091C00085FFB6
:107E4000FCCFC092C6008091C00085FFFCCFB092ED
:107E5000C60043CE80E10E94C73C3FCE0E94763CE4
:107E60000E94763C182F0E94763C112309F483C0AF
:107E7000113009F484C08FE00E94C73C2ECE80915F
:107E80000C02816080930C02F1CE80910C02816023
:107E900080930C0265CF809107018823880F880B9F
:107EA0008A2180930B028091060190910701880F2F
:107EB000991F90930701809306018091080280FF2B
:107EC00009C08091080290910902019690930902DD
:107ED00080930802F894F999FECF1127E0910601EA
:107EE000F0910701C8E0D1E0809108029091090269
:107EF000103091F40091570001700130D9F303E084
:107F000000935700E8950091570001700130D9F3B4
:107F100001E100935700E8950990199000915700EE
:107F200001700130D9F301E000935700E8951395F3
:107F3000103498F011270091570001700130D9F3E7
:107F400005E000935700E89500915700017001305B
:107F5000D9F301E100935700E8953296029709F0B2
:107F6000C7CF103011F00296E5CF11248091C000E8
:107F700085FFC5CEC8CE8EE10E94C73CAECD85E957
:0C7F80000E94C73CAACDF894FFCF8000FF
:00000001FF
